{
  "contractName": "MDTDataReward",
  "abi": [
    {
      "constant": true,
      "inputs": [
        {
          "name": "",
          "type": "address"
        }
      ],
      "name": "dataRewards",
      "outputs": [
        {
          "name": "claimableValue",
          "type": "uint256"
        },
        {
          "name": "totalTokensClaimed",
          "type": "uint256"
        },
        {
          "name": "lastClaimedTime",
          "type": "uint256"
        },
        {
          "name": "initialized",
          "type": "bool"
        },
        {
          "name": "enabled",
          "type": "bool"
        }
      ],
      "payable": false,
      "stateMutability": "view",
      "type": "function"
    },
    {
      "constant": true,
      "inputs": [],
      "name": "isSuspended",
      "outputs": [
        {
          "name": "",
          "type": "bool"
        }
      ],
      "payable": false,
      "stateMutability": "view",
      "type": "function"
    },
    {
      "constant": true,
      "inputs": [],
      "name": "totalTokensClaimed",
      "outputs": [
        {
          "name": "",
          "type": "uint256"
        }
      ],
      "payable": false,
      "stateMutability": "view",
      "type": "function"
    },
    {
      "constant": true,
      "inputs": [
        {
          "name": "",
          "type": "uint256"
        }
      ],
      "name": "boundAddresses",
      "outputs": [
        {
          "name": "",
          "type": "address"
        }
      ],
      "payable": false,
      "stateMutability": "view",
      "type": "function"
    },
    {
      "constant": true,
      "inputs": [],
      "name": "owner",
      "outputs": [
        {
          "name": "",
          "type": "address"
        }
      ],
      "payable": false,
      "stateMutability": "view",
      "type": "function"
    },
    {
      "constant": false,
      "inputs": [
        {
          "name": "newOwner",
          "type": "address"
        }
      ],
      "name": "transferOwnership",
      "outputs": [],
      "payable": false,
      "stateMutability": "nonpayable",
      "type": "function"
    },
    {
      "constant": true,
      "inputs": [],
      "name": "token",
      "outputs": [
        {
          "name": "",
          "type": "address"
        }
      ],
      "payable": false,
      "stateMutability": "view",
      "type": "function"
    },
    {
      "inputs": [
        {
          "name": "_tokenAddress",
          "type": "address"
        }
      ],
      "payable": false,
      "stateMutability": "nonpayable",
      "type": "constructor"
    },
    {
      "anonymous": false,
      "inputs": [
        {
          "indexed": true,
          "name": "_to",
          "type": "address"
        },
        {
          "indexed": false,
          "name": "_amount",
          "type": "uint256"
        }
      ],
      "name": "TokensWithdrawn",
      "type": "event"
    },
    {
      "anonymous": false,
      "inputs": [
        {
          "indexed": true,
          "name": "_to",
          "type": "address"
        },
        {
          "indexed": false,
          "name": "_amount",
          "type": "uint256"
        }
      ],
      "name": "RewardDelivered",
      "type": "event"
    },
    {
      "anonymous": false,
      "inputs": [
        {
          "indexed": true,
          "name": "_to",
          "type": "address"
        },
        {
          "indexed": false,
          "name": "_amount",
          "type": "uint256"
        },
        {
          "indexed": false,
          "name": "_claimedTime",
          "type": "uint256"
        }
      ],
      "name": "RewardClaimed",
      "type": "event"
    },
    {
      "anonymous": false,
      "inputs": [
        {
          "indexed": true,
          "name": "_to",
          "type": "address"
        },
        {
          "indexed": false,
          "name": "_amount",
          "type": "uint256"
        }
      ],
      "name": "RewardCanceled",
      "type": "event"
    },
    {
      "anonymous": false,
      "inputs": [
        {
          "indexed": true,
          "name": "_from",
          "type": "address"
        },
        {
          "indexed": true,
          "name": "_to",
          "type": "address"
        },
        {
          "indexed": false,
          "name": "_amount",
          "type": "uint256"
        }
      ],
      "name": "RewardTransferred",
      "type": "event"
    },
    {
      "anonymous": false,
      "inputs": [
        {
          "indexed": true,
          "name": "previousOwner",
          "type": "address"
        },
        {
          "indexed": true,
          "name": "newOwner",
          "type": "address"
        }
      ],
      "name": "OwnershipTransferred",
      "type": "event"
    },
    {
      "constant": false,
      "inputs": [
        {
          "name": "_address",
          "type": "address"
        },
        {
          "name": "_isEnabled",
          "type": "bool"
        }
      ],
      "name": "setRewardEnabled",
      "outputs": [],
      "payable": false,
      "stateMutability": "nonpayable",
      "type": "function"
    },
    {
      "constant": false,
      "inputs": [
        {
          "name": "_addresses",
          "type": "address[]"
        },
        {
          "name": "_isEnabled",
          "type": "bool"
        }
      ],
      "name": "setRewardsEnabled",
      "outputs": [],
      "payable": false,
      "stateMutability": "nonpayable",
      "type": "function"
    },
    {
      "constant": false,
      "inputs": [
        {
          "name": "_addresses",
          "type": "address[]"
        },
        {
          "name": "_values",
          "type": "uint256[]"
        }
      ],
      "name": "deliverRewards",
      "outputs": [],
      "payable": false,
      "stateMutability": "nonpayable",
      "type": "function"
    },
    {
      "constant": false,
      "inputs": [
        {
          "name": "_addresses",
          "type": "address[]"
        },
        {
          "name": "_values",
          "type": "uint256[]"
        }
      ],
      "name": "cancelRewards",
      "outputs": [],
      "payable": false,
      "stateMutability": "nonpayable",
      "type": "function"
    },
    {
      "constant": false,
      "inputs": [
        {
          "name": "_fromAddress",
          "type": "address"
        },
        {
          "name": "_toAddress",
          "type": "address"
        },
        {
          "name": "_amount",
          "type": "uint256"
        }
      ],
      "name": "transferReward",
      "outputs": [],
      "payable": false,
      "stateMutability": "nonpayable",
      "type": "function"
    },
    {
      "constant": false,
      "inputs": [],
      "name": "claimReward",
      "outputs": [
        {
          "name": "",
          "type": "uint256"
        }
      ],
      "payable": false,
      "stateMutability": "nonpayable",
      "type": "function"
    },
    {
      "constant": false,
      "inputs": [
        {
          "name": "_tokenReceiver",
          "type": "address"
        },
        {
          "name": "_amount",
          "type": "uint256"
        }
      ],
      "name": "withdrawTokens",
      "outputs": [],
      "payable": false,
      "stateMutability": "nonpayable",
      "type": "function"
    },
    {
      "constant": false,
      "inputs": [],
      "name": "suspend",
      "outputs": [],
      "payable": false,
      "stateMutability": "nonpayable",
      "type": "function"
    },
    {
      "constant": false,
      "inputs": [],
      "name": "resume",
      "outputs": [],
      "payable": false,
      "stateMutability": "nonpayable",
      "type": "function"
    },
    {
      "constant": false,
      "inputs": [
        {
          "name": "_token",
          "type": "address"
        },
        {
          "name": "amount",
          "type": "uint256"
        }
      ],
      "name": "emergencyERC20Drain",
      "outputs": [],
      "payable": false,
      "stateMutability": "nonpayable",
      "type": "function"
    },
    {
      "constant": true,
      "inputs": [
        {
          "name": "_address",
          "type": "address"
        }
      ],
      "name": "tokenBalanceOf",
      "outputs": [
        {
          "name": "",
          "type": "uint256"
        }
      ],
      "payable": false,
      "stateMutability": "view",
      "type": "function"
    },
    {
      "constant": true,
      "inputs": [],
      "name": "contractTokenBalance",
      "outputs": [
        {
          "name": "",
          "type": "uint256"
        }
      ],
      "payable": false,
      "stateMutability": "view",
      "type": "function"
    },
    {
      "constant": true,
      "inputs": [],
      "name": "getTotalTokensClaimed",
      "outputs": [
        {
          "name": "",
          "type": "uint256"
        }
      ],
      "payable": false,
      "stateMutability": "view",
      "type": "function"
    },
    {
      "constant": true,
      "inputs": [],
      "name": "getClaimableValue",
      "outputs": [
        {
          "name": "",
          "type": "uint256"
        }
      ],
      "payable": false,
      "stateMutability": "view",
      "type": "function"
    },
    {
      "constant": true,
      "inputs": [],
      "name": "getBoundAddresses",
      "outputs": [
        {
          "name": "",
          "type": "address[]"
        }
      ],
      "payable": false,
      "stateMutability": "view",
      "type": "function"
    },
    {
      "constant": true,
      "inputs": [],
      "name": "isAddressBound",
      "outputs": [
        {
          "name": "",
          "type": "bool"
        }
      ],
      "payable": false,
      "stateMutability": "view",
      "type": "function"
    },
    {
      "constant": true,
      "inputs": [],
      "name": "canClaimReward",
      "outputs": [
        {
          "name": "",
          "type": "bool"
        }
      ],
      "payable": false,
      "stateMutability": "view",
      "type": "function"
    },
    {
      "constant": true,
      "inputs": [],
      "name": "getRewardRecord",
      "outputs": [
        {
          "name": "",
          "type": "uint256"
        },
        {
          "name": "",
          "type": "uint256"
        },
        {
          "name": "",
          "type": "uint256"
        },
        {
          "name": "",
          "type": "bool"
        },
        {
          "name": "",
          "type": "bool"
        }
      ],
      "payable": false,
      "stateMutability": "view",
      "type": "function"
    },
    {
      "constant": true,
      "inputs": [
        {
          "name": "_address",
          "type": "address"
        }
      ],
      "name": "getRewardRecordForAddress",
      "outputs": [
        {
          "name": "",
          "type": "uint256"
        },
        {
          "name": "",
          "type": "uint256"
        },
        {
          "name": "",
          "type": "uint256"
        },
        {
          "name": "",
          "type": "bool"
        },
        {
          "name": "",
          "type": "bool"
        }
      ],
      "payable": false,
      "stateMutability": "view",
      "type": "function"
    }
  ],
  "bytecode": "0x608060405234801561001057600080fd5b50604051602080612ff38339810180604052602081101561003057600080fd5b8101908080519060200190929190505050336000806101000a81548173ffffffffffffffffffffffffffffffffffffffff021916908373ffffffffffffffffffffffffffffffffffffffff160217905550600073ffffffffffffffffffffffffffffffffffffffff168173ffffffffffffffffffffffffffffffffffffffff161415610124576040517f08c379a000000000000000000000000000000000000000000000000000000000815260040180806020018281038252601c8152602001807f746f6b656e20616464726573732063616e6e6f74206265207a65726f0000000081525060200191505060405180910390fd5b80600160006101000a81548173ffffffffffffffffffffffffffffffffffffffff021916908373ffffffffffffffffffffffffffffffffffffffff16021790555050612e7e806101756000396000f3fe608060405234801561001057600080fd5b506004361061018e5760003560e01c80638da5cb5b116100de578063db0e16f111610097578063e91e93de11610071578063e91e93de14610994578063edd1820a146109e4578063f2fde38b14610a02578063fc0c546a14610a465761018e565b8063db0e16f1146108e4578063e42c08f214610932578063e6400bbe1461098a5761018e565b80638da5cb5b1461079f578063918bad24146107e95780639e9aed621461082b578063a2a7e91414610849578063b88a802f146108a8578063c00f60c4146108c65761018e565b80631d1309351161014b578063622dca3111610125578063622dca311461067157806372a1e440146106ed5780638465244e1461070f5780638d7e6121146107315761018e565b80631d130935146105c3578063244c4ace146105e55780635912c046146106535761018e565b80630315271714610193578063046f7da21461025757806305bbb8111461026157806306b091f9146103ad578063149bd4a9146103fb57806319a0f4f414610547575b600080fd5b610255600480360360408110156101a957600080fd5b81019080803590602001906401000000008111156101c657600080fd5b8201836020820111156101d857600080fd5b803590602001918460208302840111640100000000831117156101fa57600080fd5b919080806020026020016040519081016040528093929190818152602001838360200280828437600081840152601f19601f820116905080830192505050505050509192919290803515159060200190929190505050610a90565b005b61025f610b90565b005b6103ab6004803603604081101561027757600080fd5b810190808035906020019064010000000081111561029457600080fd5b8201836020820111156102a657600080fd5b803590602001918460208302840111640100000000831117156102c857600080fd5b919080806020026020016040519081016040528093929190818152602001838360200280828437600081840152601f19601f8201169050808301925050505050505091929192908035906020019064010000000081111561032857600080fd5b82018360208201111561033a57600080fd5b8035906020019184602083028401116401000000008311171561035c57600080fd5b919080806020026020016040519081016040528093929190818152602001838360200280828437600081840152601f19601f820116905080830192505050505050509192919290505050610c89565b005b6103f9600480360360408110156103c357600080fd5b81019080803573ffffffffffffffffffffffffffffffffffffffff16906020019092919080359060200190929190505050610fcc565b005b6105456004803603604081101561041157600080fd5b810190808035906020019064010000000081111561042e57600080fd5b82018360208201111561044057600080fd5b8035906020019184602083028401116401000000008311171561046257600080fd5b919080806020026020016040519081016040528093929190818152602001838360200280828437600081840152601f19601f820116905080830192505050505050509192919290803590602001906401000000008111156104c257600080fd5b8201836020820111156104d457600080fd5b803590602001918460208302840111640100000000831117156104f657600080fd5b919080806020026020016040519081016040528093929190818152602001838360200280828437600081840152601f19601f820116905080830192505050505050509192919290505050611313565b005b6105896004803603602081101561055d57600080fd5b81019080803573ffffffffffffffffffffffffffffffffffffffff169060200190929190505050611711565b6040518086815260200185815260200184815260200183151515158152602001821515151581526020019550505050505060405180910390f35b6105cb611761565b604051808215151515815260200191505060405180910390f35b610651600480360360608110156105fb57600080fd5b81019080803573ffffffffffffffffffffffffffffffffffffffff169060200190929190803573ffffffffffffffffffffffffffffffffffffffff16906020019092919080359060200190929190505050611774565b005b61065b611bdb565b6040518082815260200191505060405180910390f35b6106b36004803603602081101561068757600080fd5b81019080803573ffffffffffffffffffffffffffffffffffffffff169060200190929190505050611be1565b6040518086815260200185815260200184815260200183151515158152602001821515151581526020019550505050505060405180910390f35b6106f5611d35565b604051808215151515815260200191505060405180910390f35b610717611dc1565b604051808215151515815260200191505060405180910390f35b61075d6004803603602081101561074757600080fd5b8101908080359060200190929190505050611e18565b604051808273ffffffffffffffffffffffffffffffffffffffff1673ffffffffffffffffffffffffffffffffffffffff16815260200191505060405180910390f35b6107a7611e54565b604051808273ffffffffffffffffffffffffffffffffffffffff1673ffffffffffffffffffffffffffffffffffffffff16815260200191505060405180910390f35b6107f1611e79565b6040518086815260200185815260200184815260200183151515158152602001821515151581526020019550505050505060405180910390f35b610833611f08565b6040518082815260200191505060405180910390f35b610851611fe9565b6040518080602001828103825283818151815260200191508051906020019060200280838360005b83811015610894578082015181840152602081019050610879565b505050509050019250505060405180910390f35b6108b0612077565b6040518082815260200191505060405180910390f35b6108ce61232e565b6040518082815260200191505060405180910390f35b610930600480360360408110156108fa57600080fd5b81019080803573ffffffffffffffffffffffffffffffffffffffff16906020019092919080359060200190929190505050612378565b005b6109746004803603602081101561094857600080fd5b81019080803573ffffffffffffffffffffffffffffffffffffffff169060200190929190505050612522565b6040518082815260200191505060405180910390f35b610992612605565b005b6109e2600480360360408110156109aa57600080fd5b81019080803573ffffffffffffffffffffffffffffffffffffffff1690602001909291908035151590602001909291905050506126ff565b005b6109ec612986565b6040518082815260200191505060405180910390f35b610a4460048036036020811015610a1857600080fd5b81019080803573ffffffffffffffffffffffffffffffffffffffff1690602001909291905050506129d0565b005b610a4e612bf3565b604051808273ffffffffffffffffffffffffffffffffffffffff1673ffffffffffffffffffffffffffffffffffffffff16815260200191505060405180910390f35b6000809054906101000a900473ffffffffffffffffffffffffffffffffffffffff1673ffffffffffffffffffffffffffffffffffffffff163373ffffffffffffffffffffffffffffffffffffffff1614610b52576040517f08c379a00000000000000000000000000000000000000000000000000000000081526004018080602001828103825260158152602001807f6f6e6c79206f776e65722063616e20616363657373000000000000000000000081525060200191505060405180910390fd5b60008090505b8251811015610b8b57610b7e838281518110610b7057fe5b6020026020010151836126ff565b8080600101915050610b58565b505050565b6000809054906101000a900473ffffffffffffffffffffffffffffffffffffffff1673ffffffffffffffffffffffffffffffffffffffff163373ffffffffffffffffffffffffffffffffffffffff1614610c52576040517f08c379a00000000000000000000000000000000000000000000000000000000081526004018080602001828103825260158152602001807f6f6e6c79206f776e65722063616e20616363657373000000000000000000000081525060200191505060405180910390fd5b600360009054906101000a900460ff16610c6b57610c87565b6000600360006101000a81548160ff0219169083151502179055505b565b6000809054906101000a900473ffffffffffffffffffffffffffffffffffffffff1673ffffffffffffffffffffffffffffffffffffffff163373ffffffffffffffffffffffffffffffffffffffff1614610d4b576040517f08c379a00000000000000000000000000000000000000000000000000000000081526004018080602001828103825260158152602001807f6f6e6c79206f776e65722063616e20616363657373000000000000000000000081525060200191505060405180910390fd5b8051825114610da5576040517f08c379a0000000000000000000000000000000000000000000000000000000008152600401808060200182810382526037815260200180612d346037913960400191505060405180910390fd5b60008090505b8251811015610fc7576000828281518110610dc257fe5b602002602001015111610e3d576040517f08c379a000000000000000000000000000000000000000000000000000000000815260040180806020018281038252601f8152602001807f76616c7565206d7573742062652067726561746572207468616e207a65726f0081525060200191505060405180910390fd5b600060046000858481518110610e4f57fe5b602002602001015173ffffffffffffffffffffffffffffffffffffffff1673ffffffffffffffffffffffffffffffffffffffff168152602001908152602001600020905060008160000154118015610ebe57508060000154838381518110610eb357fe5b602002602001015111155b610f13576040517f08c379a0000000000000000000000000000000000000000000000000000000008152600401808060200182810382526056815260200180612dce6056913960600191505060405180910390fd5b610f3d838381518110610f2257fe5b60200260200101518260000154612c1990919063ffffffff16565b8160000181905550838281518110610f5157fe5b602002602001015173ffffffffffffffffffffffffffffffffffffffff167f788c01a71374c2ead70735279485fb52469ce8dffd9c70c1c6c59c696bbd196d848481518110610f9c57fe5b60200260200101516040518082815260200191505060405180910390a2508080600101915050610dab565b505050565b6000809054906101000a900473ffffffffffffffffffffffffffffffffffffffff1673ffffffffffffffffffffffffffffffffffffffff163373ffffffffffffffffffffffffffffffffffffffff161461108e576040517f08c379a00000000000000000000000000000000000000000000000000000000081526004018080602001828103825260158152602001807f6f6e6c79206f776e65722063616e20616363657373000000000000000000000081525060200191505060405180910390fd5b8161109881612c30565b6110ed576040517f08c379a0000000000000000000000000000000000000000000000000000000008152600401808060200182810382526039815260200180612d956039913960400191505060405180910390fd5b60008211611163576040517f08c379a00000000000000000000000000000000000000000000000000000000081526004018080602001828103825260208152602001807f616d6f756e74206d7573742062652067726561746572207468616e207a65726f81525060200191505060405180910390fd5b60011515600160009054906101000a900473ffffffffffffffffffffffffffffffffffffffff1673ffffffffffffffffffffffffffffffffffffffff1663a9059cbb85856040518363ffffffff1660e01b8152600401808373ffffffffffffffffffffffffffffffffffffffff1673ffffffffffffffffffffffffffffffffffffffff16815260200182815260200192505050602060405180830381600087803b15801561121057600080fd5b505af1158015611224573d6000803e3d6000fd5b505050506040513d602081101561123a57600080fd5b81019080805190602001909291905050501515146112c0576040517f08c379a00000000000000000000000000000000000000000000000000000000081526004018080602001828103825260198152602001807f6661696c656420746f207472616e7366657220746f6b656e730000000000000081525060200191505060405180910390fd5b8273ffffffffffffffffffffffffffffffffffffffff167f6352c5382c4a4578e712449ca65e83cdb392d045dfcf1cad9615189db2da244b836040518082815260200191505060405180910390a2505050565b6000809054906101000a900473ffffffffffffffffffffffffffffffffffffffff1673ffffffffffffffffffffffffffffffffffffffff163373ffffffffffffffffffffffffffffffffffffffff16146113d5576040517f08c379a00000000000000000000000000000000000000000000000000000000081526004018080602001828103825260158152602001807f6f6e6c79206f776e65722063616e20616363657373000000000000000000000081525060200191505060405180910390fd5b805182511461142f576040517f08c379a0000000000000000000000000000000000000000000000000000000008152600401808060200182810382526037815260200180612d346037913960400191505060405180910390fd5b60008090505b825181101561170c5761145a83828151811061144d57fe5b6020026020010151612c30565b6114af576040517f08c379a000000000000000000000000000000000000000000000000000000000815260040180806020018281038252602f815260200180612e24602f913960400191505060405180910390fd5b60008282815181106114bd57fe5b602002602001015111611538576040517f08c379a000000000000000000000000000000000000000000000000000000000815260040180806020018281038252601f8152602001807f76616c7565206d7573742062652067726561746572207468616e207a65726f0081525060200191505060405180910390fd5b60006004600085848151811061154a57fe5b602002602001015173ffffffffffffffffffffffffffffffffffffffff1673ffffffffffffffffffffffffffffffffffffffff16815260200190815260200160002090506115b883838151811061159d57fe5b60200260200101518260000154612ca190919063ffffffff16565b81600001819055508060030160009054906101000a900460ff1661168a5760058483815181106115e457fe5b602002602001015190806001815401808255809150509060018203906000526020600020016000909192909190916101000a81548173ffffffffffffffffffffffffffffffffffffffff021916908373ffffffffffffffffffffffffffffffffffffffff1602179055505060018160030160006101000a81548160ff02191690831515021790555060018160030160016101000a81548160ff0219169083151502179055505b83828151811061169657fe5b602002602001015173ffffffffffffffffffffffffffffffffffffffff167fd3a02b927bc9a163c57eb821b39b52c84c66f8939bfc64dbf7f3557ba7cfed4a8484815181106116e157fe5b60200260200101516040518082815260200191505060405180910390a2508080600101915050611435565b505050565b60046020528060005260406000206000915090508060000154908060010154908060020154908060030160009054906101000a900460ff16908060030160019054906101000a900460ff16905085565b600360009054906101000a900460ff1681565b6000809054906101000a900473ffffffffffffffffffffffffffffffffffffffff1673ffffffffffffffffffffffffffffffffffffffff163373ffffffffffffffffffffffffffffffffffffffff1614611836576040517f08c379a00000000000000000000000000000000000000000000000000000000081526004018080602001828103825260158152602001807f6f6e6c79206f776e65722063616e20616363657373000000000000000000000081525060200191505060405180910390fd5b8261184081612c30565b611895576040517f08c379a0000000000000000000000000000000000000000000000000000000008152600401808060200182810382526039815260200180612d956039913960400191505060405180910390fd5b8261189f81612c30565b6118f4576040517f08c379a0000000000000000000000000000000000000000000000000000000008152600401808060200182810382526039815260200180612d956039913960400191505060405180910390fd5b60008311801561193057508373ffffffffffffffffffffffffffffffffffffffff168573ffffffffffffffffffffffffffffffffffffffff1614155b611985576040517f08c379a000000000000000000000000000000000000000000000000000000000815260040180806020018281038252604c815260200180612ce8604c913960600191505060405180910390fd5b6000600460008773ffffffffffffffffffffffffffffffffffffffff1673ffffffffffffffffffffffffffffffffffffffff16815260200190815260200160002090506000600460008773ffffffffffffffffffffffffffffffffffffffff1673ffffffffffffffffffffffffffffffffffffffff168152602001908152602001600020905060008260000154118015611a23575081600001548511155b611a78576040517f08c379a000000000000000000000000000000000000000000000000000000000815260040180806020018281038252602a815260200180612d6b602a913960400191505060405180910390fd5b611a8f858360000154612c1990919063ffffffff16565b8260000181905550611aae858260000154612ca190919063ffffffff16565b81600001819055508060030160009054906101000a900460ff16611b6d5760058690806001815401808255809150509060018203906000526020600020016000909192909190916101000a81548173ffffffffffffffffffffffffffffffffffffffff021916908373ffffffffffffffffffffffffffffffffffffffff1602179055505060018160030160006101000a81548160ff02191690831515021790555060018160030160016101000a81548160ff0219169083151502179055505b8573ffffffffffffffffffffffffffffffffffffffff168773ffffffffffffffffffffffffffffffffffffffff167f4634ecdf654a6f266749291b25bdd00963ec5fe7262fb458f390d94b670558ee876040518082815260200191505060405180910390a350505050505050565b60025481565b60008060008060008060009054906101000a900473ffffffffffffffffffffffffffffffffffffffff1673ffffffffffffffffffffffffffffffffffffffff163373ffffffffffffffffffffffffffffffffffffffff1614611cab576040517f08c379a00000000000000000000000000000000000000000000000000000000081526004018080602001828103825260158152602001807f6f6e6c79206f776e65722063616e20616363657373000000000000000000000081525060200191505060405180910390fd5b6000600460008873ffffffffffffffffffffffffffffffffffffffff1673ffffffffffffffffffffffffffffffffffffffff16815260200190815260200160002090508060000154816001015482600201548360030160009054906101000a900460ff168460030160019054906101000a900460ff16955095509550955095505091939590929450565b6000600360009054906101000a900460ff1615611d555760009050611dbe565b6000600460003373ffffffffffffffffffffffffffffffffffffffff1673ffffffffffffffffffffffffffffffffffffffff16815260200190815260200160002090508060030160019054906101000a900460ff168015611dba575060008160000154115b9150505b90565b6000600460003373ffffffffffffffffffffffffffffffffffffffff1673ffffffffffffffffffffffffffffffffffffffff16815260200190815260200160002060030160009054906101000a900460ff16905090565b60058181548110611e2557fe5b906000526020600020016000915054906101000a900473ffffffffffffffffffffffffffffffffffffffff1681565b6000809054906101000a900473ffffffffffffffffffffffffffffffffffffffff1681565b600080600080600080600460003373ffffffffffffffffffffffffffffffffffffffff1673ffffffffffffffffffffffffffffffffffffffff16815260200190815260200160002090508060000154816001015482600201548360030160009054906101000a900460ff168460030160019054906101000a900460ff1695509550955095509550509091929394565b6000600160009054906101000a900473ffffffffffffffffffffffffffffffffffffffff1673ffffffffffffffffffffffffffffffffffffffff166370a08231306040518263ffffffff1660e01b8152600401808273ffffffffffffffffffffffffffffffffffffffff1673ffffffffffffffffffffffffffffffffffffffff16815260200191505060206040518083038186803b158015611fa957600080fd5b505afa158015611fbd573d6000803e3d6000fd5b505050506040513d6020811015611fd357600080fd5b8101908080519060200190929190505050905090565b6060600580548060200260200160405190810160405280929190818152602001828054801561206d57602002820191906000526020600020905b8160009054906101000a900473ffffffffffffffffffffffffffffffffffffffff1673ffffffffffffffffffffffffffffffffffffffff1681526020019060010190808311612023575b5050505050905090565b6000612081611d35565b6120d6576040517f08c379a000000000000000000000000000000000000000000000000000000000815260040180806020018281038252602a815260200180612cbe602a913960400191505060405180910390fd5b6000600460003373ffffffffffffffffffffffffffffffffffffffff1673ffffffffffffffffffffffffffffffffffffffff168152602001908152602001600020905060008160000154905060008260000181905550612143818360010154612ca190919063ffffffff16565b826001018190555042826002018190555061216981600254612ca190919063ffffffff16565b60028190555060011515600160009054906101000a900473ffffffffffffffffffffffffffffffffffffffff1673ffffffffffffffffffffffffffffffffffffffff1663a9059cbb33846040518363ffffffff1660e01b8152600401808373ffffffffffffffffffffffffffffffffffffffff1673ffffffffffffffffffffffffffffffffffffffff16815260200182815260200192505050602060405180830381600087803b15801561221c57600080fd5b505af1158015612230573d6000803e3d6000fd5b505050506040513d602081101561224657600080fd5b81019080805190602001909291905050501515146122cc576040517f08c379a00000000000000000000000000000000000000000000000000000000081526004018080602001828103825260198152602001807f6661696c656420746f207472616e7366657220746f6b656e730000000000000081525060200191505060405180910390fd5b3373ffffffffffffffffffffffffffffffffffffffff167ff01da32686223933d8a18a391060918c7f11a3648639edd87ae013e2e2731743828460020154604051808381526020018281526020019250505060405180910390a2809250505090565b6000600460003373ffffffffffffffffffffffffffffffffffffffff1673ffffffffffffffffffffffffffffffffffffffff16815260200190815260200160002060000154905090565b6000809054906101000a900473ffffffffffffffffffffffffffffffffffffffff1673ffffffffffffffffffffffffffffffffffffffff163373ffffffffffffffffffffffffffffffffffffffff161461243a576040517f08c379a00000000000000000000000000000000000000000000000000000000081526004018080602001828103825260158152602001807f6f6e6c79206f776e65722063616e20616363657373000000000000000000000081525060200191505060405180910390fd5b8173ffffffffffffffffffffffffffffffffffffffff1663a9059cbb6000809054906101000a900473ffffffffffffffffffffffffffffffffffffffff16836040518363ffffffff1660e01b8152600401808373ffffffffffffffffffffffffffffffffffffffff1673ffffffffffffffffffffffffffffffffffffffff16815260200182815260200192505050602060405180830381600087803b1580156124e257600080fd5b505af11580156124f6573d6000803e3d6000fd5b505050506040513d602081101561250c57600080fd5b8101908080519060200190929190505050505050565b6000600160009054906101000a900473ffffffffffffffffffffffffffffffffffffffff1673ffffffffffffffffffffffffffffffffffffffff166370a08231836040518263ffffffff1660e01b8152600401808273ffffffffffffffffffffffffffffffffffffffff1673ffffffffffffffffffffffffffffffffffffffff16815260200191505060206040518083038186803b1580156125c357600080fd5b505afa1580156125d7573d6000803e3d6000fd5b505050506040513d60208110156125ed57600080fd5b81019080805190602001909291905050509050919050565b6000809054906101000a900473ffffffffffffffffffffffffffffffffffffffff1673ffffffffffffffffffffffffffffffffffffffff163373ffffffffffffffffffffffffffffffffffffffff16146126c7576040517f08c379a00000000000000000000000000000000000000000000000000000000081526004018080602001828103825260158152602001807f6f6e6c79206f776e65722063616e20616363657373000000000000000000000081525060200191505060405180910390fd5b600360009054906101000a900460ff16156126e1576126fd565b6001600360006101000a81548160ff0219169083151502179055505b565b6000809054906101000a900473ffffffffffffffffffffffffffffffffffffffff1673ffffffffffffffffffffffffffffffffffffffff163373ffffffffffffffffffffffffffffffffffffffff16146127c1576040517f08c379a00000000000000000000000000000000000000000000000000000000081526004018080602001828103825260158152602001807f6f6e6c79206f776e65722063616e20616363657373000000000000000000000081525060200191505060405180910390fd5b816127cb81612c30565b612820576040517f08c379a0000000000000000000000000000000000000000000000000000000008152600401808060200182810382526039815260200180612d956039913960400191505060405180910390fd5b6000600460008573ffffffffffffffffffffffffffffffffffffffff1673ffffffffffffffffffffffffffffffffffffffff16815260200190815260200160002090508060030160019054906101000a900460ff16801561287f575082155b156128a65760008160030160016101000a81548160ff021916908315150217905550612980565b8060030160019054906101000a900460ff161580156128c25750825b1561297f578060030160009054906101000a900460ff166129615760058490806001815401808255809150509060018203906000526020600020016000909192909190916101000a81548173ffffffffffffffffffffffffffffffffffffffff021916908373ffffffffffffffffffffffffffffffffffffffff1602179055505060018160030160006101000a81548160ff0219169083151502179055505b60018160030160016101000a81548160ff0219169083151502179055505b5b50505050565b6000600460003373ffffffffffffffffffffffffffffffffffffffff1673ffffffffffffffffffffffffffffffffffffffff16815260200190815260200160002060010154905090565b6000809054906101000a900473ffffffffffffffffffffffffffffffffffffffff1673ffffffffffffffffffffffffffffffffffffffff163373ffffffffffffffffffffffffffffffffffffffff1614612a92576040517f08c379a00000000000000000000000000000000000000000000000000000000081526004018080602001828103825260158152602001807f6f6e6c79206f776e65722063616e20616363657373000000000000000000000081525060200191505060405180910390fd5b600073ffffffffffffffffffffffffffffffffffffffff168173ffffffffffffffffffffffffffffffffffffffff161415612b35576040517f08c379a00000000000000000000000000000000000000000000000000000000081526004018080602001828103825260168152602001807f616464726573732063616e6e6f74206265207a65726f0000000000000000000081525060200191505060405180910390fd5b806000806101000a81548173ffffffffffffffffffffffffffffffffffffffff021916908373ffffffffffffffffffffffffffffffffffffffff1602179055508073ffffffffffffffffffffffffffffffffffffffff166000809054906101000a900473ffffffffffffffffffffffffffffffffffffffff1673ffffffffffffffffffffffffffffffffffffffff167f8be0079c531659141344cd1fd0a4f28419497f9722a3daafe3b4186f6b6457e060405160405180910390a350565b600160009054906101000a900473ffffffffffffffffffffffffffffffffffffffff1681565b600082821115612c2557fe5b818303905092915050565b60008073ffffffffffffffffffffffffffffffffffffffff168273ffffffffffffffffffffffffffffffffffffffff1614158015612c9a57503073ffffffffffffffffffffffffffffffffffffffff168273ffffffffffffffffffffffffffffffffffffffff1614155b9050919050565b600080828401905083811015612cb357fe5b809150509291505056fe726577617264206973206e6f7420666f756e64206f7220756e61626c6520746f20636c61696d206e6f77616d6f756e74206d7573742062652067726561746572207468616e207a65726f20616e642066726f6d41646472657373206d757374206e6f7420657175616c20746f20746f416464726573736c656e677468206f6620616464726573736573206172726179206d75737420626520657175616c20746f2076616c756573206172726179696e76616c696420616d6f756e7420746f207472616e736665722066726f6d20616e2061646472657373726563697069656e742063616e6e6f74206265207a65726f206164647265737320616e642074686520636f6e74726163742061646472657373616d6f756e74206f6620746f6b656e7320746f2062652063616e63656c65642073686f756c6420626520736d616c6c6572207468616e206f7220657175616c20746f2074686520636c61696d61626c652076616c7565616464726573732063616e6e6f74206265207a65726f206f72207468697320636f6e74726163742061646472657373a165627a7a723058203e5f0d7531c92bd79d66e4322f87c8ec90b9effa3d309a9a6778f9fc484d9fe10029",
  "source": "pragma solidity ^0.5.8;\n\nimport './math/SafeMath.sol';\nimport './token/ERC20.sol';\nimport './ownership/Ownable.sol';\n\n/**\n * @title The MDTDataReward contract\n * @dev Share data and receive MDT reward\n * @author MDT Team\n */\ncontract MDTDataReward is Ownable {\n    using SafeMath for uint256;\n\n    // Data reward record\n    struct Reward {\n        uint256 claimableValue;     // amount of tokens that are claimable\n        uint256 totalTokensClaimed; // total tokens claimed\n        uint256 lastClaimedTime;    // latest claimed time\n        bool initialized;           // whether the reward is initialized\n        bool enabled;               // whether the reward is enabled\n    }\n\n    ERC20 public token;                 // MDT contract address\n    uint256 public totalTokensClaimed;  // total tokens claimed by users\n    bool public isSuspended;            // whether to suspend claiming tokens\n\n    mapping (address => Reward) public dataRewards; // all data rewards records\n    address[] public boundAddresses;                // addresses that have data rewards\n\n    // Events\n    event TokensWithdrawn(address indexed _to, uint256 _amount);\n    event RewardDelivered(address indexed _to, uint256 _amount);\n    event RewardClaimed(address indexed _to, uint256 _amount, uint256 _claimedTime);\n    event RewardCanceled(address indexed _to, uint256 _amount);\n    event RewardTransferred(address indexed _from, address indexed _to, uint256 _amount);\n\n    /// @dev Reverts if address is 0x0 or this token address\n    modifier validRecipient(address _recipient) {\n        require(validAddress(_recipient), \"recipient cannot be zero address and the contract address\");\n        _;\n    }\n\n    /**\n    * @dev MDTDataReward contract constructor.\n    * @param _tokenAddress address The MDT contract address.\n    */\n    constructor(address _tokenAddress) public {\n        require(_tokenAddress != address(0), \"token address cannot be zero\");\n\n        token = ERC20(_tokenAddress);\n    }\n\n    /**\n     * @dev Set data reward to enabled or disabled for a wallet address. (contract owner only)\n     * @param _address address Wallet address.\n     * @param _isEnabled true to set reward to be enabled.\n     */\n    function setRewardEnabled(address _address, bool _isEnabled)\n        public\n        onlyOwner\n        validRecipient(_address)\n    {\n        Reward storage reward = dataRewards[_address];\n        if (reward.enabled && !_isEnabled) {\n            reward.enabled = false;\n        } else if (!reward.enabled && _isEnabled) {\n            if (!reward.initialized) {\n                boundAddresses.push(_address);\n                reward.initialized = true;\n            }\n            reward.enabled = true;\n        }\n    }\n\n    /**\n     * @dev Set data rewards to enabled or disabled for a list of wallet addresses. (contract owner only)\n     * @param _addresses address[] List of wallet addresses.\n     * @param _isEnabled true to set rewards to be enabled.\n     */\n    function setRewardsEnabled(address[] memory _addresses, bool _isEnabled) public onlyOwner {\n        for (uint i = 0; i < _addresses.length; i++) {\n            setRewardEnabled(_addresses[i], _isEnabled);\n        }\n    }\n\n    /**\n     * @dev Deliver data rewards to users. (contract owner only)\n     * @param _addresses address[] Addresses that MDT users binded to receive data rewards.\n     * @param _values uint256[] Amount of tokens earned.\n     */\n    function deliverRewards(address[] memory _addresses, uint256[] memory _values) public onlyOwner {\n        require(_addresses.length == _values.length, \"length of addresses array must be equal to values array\");\n\n        for (uint i = 0; i < _addresses.length; i++) {\n            require(validAddress(_addresses[i]), \"address cannot be zero or this contract address\");\n            require(_values[i] > 0, \"value must be greater than zero\");\n            Reward storage reward = dataRewards[_addresses[i]];\n            reward.claimableValue = reward.claimableValue.add(_values[i]);\n            if (!reward.initialized) { // set reward to be initialized and enabled if it is not initialized\n                boundAddresses.push(_addresses[i]);\n                reward.initialized = true;\n                reward.enabled = true;\n            } // if the reward was initialized, the enabled status remains\n            emit RewardDelivered(_addresses[i], _values[i]);\n        }\n    }\n\n    /**\n     * @dev Cancel expired data rewards if users don't claim within a certain period. (contract owner only)\n     * @param _addresses address[] Addressses that have expired data rewards.\n     * @param _values uint256[] Amount of tokens to cancel from an address.\n     */\n    function cancelRewards(address[] memory _addresses, uint256[] memory _values) public onlyOwner {\n        require(_addresses.length == _values.length, \"length of addresses array must be equal to values array\");\n\n        for (uint i = 0; i < _addresses.length; i++) {\n            require(_values[i] > 0, \"value must be greater than zero\");\n            Reward storage reward = dataRewards[_addresses[i]];\n            require(reward.claimableValue > 0 && _values[i] <= reward.claimableValue,  // if the address is invalid, this check will fail\n                \"amount of tokens to be canceled should be smaller than or equal to the claimable value\");\n            reward.claimableValue = reward.claimableValue.sub(_values[i]);\n            emit RewardCanceled(_addresses[i], _values[i]);\n        }\n    }\n\n    /**\n     * @dev Transfer tokens between wallets, used when user binds the account to a different wallet address. (contract owner only)\n     * @param _fromAddress address The wallet address to transfer tokens from\n     * @param _toAddress address The wwallet address to transfer tokens to\n     * @param _amount amount of tokens to be transfered\n     */\n    function transferReward(address _fromAddress, address _toAddress, uint256 _amount)\n        public\n        onlyOwner\n        validRecipient(_fromAddress)\n        validRecipient(_toAddress)\n    {\n        require(_amount > 0 && _fromAddress != _toAddress, \"amount must be greater than zero and fromAddress must not equal to toAddress\");\n        Reward storage fromReward = dataRewards[_fromAddress];\n        Reward storage toReward = dataRewards[_toAddress];\n        require(fromReward.claimableValue > 0 && _amount <= fromReward.claimableValue, \"invalid amount to transfer from an address\");\n        fromReward.claimableValue = fromReward.claimableValue.sub(_amount);\n        toReward.claimableValue = toReward.claimableValue.add(_amount);\n        if (!toReward.initialized) { // set toReward to be initialized and enabled if it is not initialized\n            boundAddresses.push(_toAddress);\n            toReward.initialized = true;\n            toReward.enabled = true;\n        }\n\n        emit RewardTransferred(_fromAddress, _toAddress, _amount);\n    }\n\n    /**\n     * @dev claim reward earned.\n     * @return amount of tokens claimed.\n     */\n    function claimReward() public returns (uint256) {\n        require(canClaimReward(), \"reward is not found or unable to claim now\");\n        Reward storage reward = dataRewards[msg.sender];\n        uint256 value = reward.claimableValue;\n        reward.claimableValue = 0;\n        reward.totalTokensClaimed = reward.totalTokensClaimed.add(value);\n        reward.lastClaimedTime = now;\n        totalTokensClaimed = totalTokensClaimed.add(value);\n        require(token.transfer(msg.sender, value) == true, \"failed to transfer tokens\");\n        emit RewardClaimed(msg.sender, value, reward.lastClaimedTime);\n        return value;\n    }\n\n    /**\n     * @dev Withdraw tokens from the contract. (contract owner only)\n     * @param _tokenReceiver address Wallet for receiving tokens.\n     * @param _amount uint256 Amount of tokens.\n     */\n    function withdrawTokens(address _tokenReceiver, uint256 _amount)\n        public\n        onlyOwner\n        validRecipient(_tokenReceiver)\n    {\n        require(_amount > 0, \"amount must be greater than zero\");\n        require(token.transfer(_tokenReceiver, _amount) == true, \"failed to transfer tokens\");\n        emit TokensWithdrawn(_tokenReceiver, _amount);\n    }\n\n    /**\n     * @dev Suspend the data reward contract. (contract owner only)\n     */\n    function suspend() public onlyOwner {\n        if (isSuspended) {\n            return;\n        }\n        isSuspended = true;\n    }\n\n    /**\n     * @dev Resume the data reward contract. (contract owner only)\n     */\n    function resume() public onlyOwner {\n        if (!isSuspended) {\n            return;\n        }\n        isSuspended = false;\n    }\n\n    /**\n     * @dev Transfer to owner any tokens send by mistake to this contract. (contract owner only)\n     * @param _token ERC20 The address of the token to transfer.\n     * @param amount uint256 The amount to be transferred.\n     */\n    function emergencyERC20Drain(ERC20 _token, uint256 amount) public onlyOwner {\n        _token.transfer(owner, amount);\n    }\n\n    /**\n     * @dev Get token balance of a wallet address.\n     * @param _address address Address to be queried.\n     * @return the token balance of a wallet address.\n     */\n    function tokenBalanceOf(address _address) public view returns (uint256) {\n        return token.balanceOf(_address);\n    }\n\n    /**\n     * @dev Get token balance of this contract.\n     * @return the token balance of this contract.\n     */\n    function contractTokenBalance() public view returns (uint256) {\n        return token.balanceOf(address(this));\n    }\n\n    /**\n     * @dev Get total tokens claimed for the caller address.\n     * @return amount of tokens claimed.\n     */\n    function getTotalTokensClaimed() public view returns (uint256) {\n        return dataRewards[msg.sender].totalTokensClaimed;\n    }\n\n    /**\n     * @dev Get amount of claimable tokens for the caller address.\n     * @return amount of claimable tokens.\n     */\n    function getClaimableValue() public view returns (uint256) {\n        return dataRewards[msg.sender].claimableValue;\n    }\n\n    /**\n     * @dev Get bound addresses.\n     * @return bound addresses.\n     */\n    function getBoundAddresses() public view returns (address[] memory) {\n        return boundAddresses;\n    }\n\n    /**\n     * @dev Check if the caller address is bound to the contract. (ever setup via deliverRewards or setRewardEnabled)\n     * @return true if the caller address is bound.\n     */\n    function isAddressBound() public view returns (bool) {\n        return dataRewards[msg.sender].initialized;\n    }\n\n    /**\n     * @dev Check if the caller address has claimable reward.\n     * @return true if the caller has claimable reward.\n     */\n    function canClaimReward() public view returns (bool) {\n        if (isSuspended) {\n            return false;\n        }\n        Reward storage reward = dataRewards[msg.sender];\n        return reward.enabled && reward.claimableValue > 0;\n    }\n\n    /**\n     * @dev Get reward record for the caller.\n     * @return a tuple of reward record (claimableValue, totalTokensClaimed, lastClaimedTime, initialized, enabled).\n     */\n    function getRewardRecord() public view returns (uint256, uint256, uint256, bool, bool) {\n        Reward storage reward = dataRewards[msg.sender];\n        return (reward.claimableValue, reward.totalTokensClaimed, reward.lastClaimedTime, reward.initialized, reward.enabled);\n    }\n\n    /**\n     * @dev Get reward record for address. (contract owner only)\n     * @param _address address Wallet address.\n     * @return a tuple of reward record (claimableValue, totalTokensClaimed, lastClaimedTime, initialized, enabled).\n     */\n    function getRewardRecordForAddress(address _address) public onlyOwner view returns (uint256, uint256, uint256, bool, bool) {\n        Reward storage reward = dataRewards[_address];\n        return (reward.claimableValue, reward.totalTokensClaimed, reward.lastClaimedTime, reward.initialized, reward.enabled);\n    }\n\n    /**\n     * @dev Check if address is valid.\n     * @param _address address Wallet address.\n     * @return true if the address is valid.\n     */\n    function validAddress(address _address) private view returns (bool) {\n        return _address != address(0) && _address != address(this);\n    }\n}",
  "sourcePath": "/Users/Gary/Desktop/SourceCode/mdt-data-rewards/contracts/MDTDataReward.sol",
  "compiler": {
    "name": "solc",
    "version": "0.5.8+commit.23d335f2.Emscripten.clang"
  },
  "schemaVersion": "3.0.11",
  "updatedAt": "2019-08-20T06:42:22.671Z",
  "devdoc": {
    "author": "MDT Team",
    "details": "Share data and receive MDT reward",
    "methods": {
      "canClaimReward()": {
        "details": "Check if the caller address has claimable reward.",
        "return": "true if the caller has claimable reward."
      },
      "cancelRewards(address[],uint256[])": {
        "details": "Cancel expired data rewards if users don't claim within a certain period. (contract owner only)",
        "params": {
          "_addresses": "address[] Addressses that have expired data rewards.",
          "_values": "uint256[] Amount of tokens to cancel from an address."
        }
      },
      "claimReward()": {
        "details": "claim reward earned.",
        "return": "amount of tokens claimed."
      },
      "constructor": {
        "details": "MDTDataReward contract constructor.",
        "params": {
          "_tokenAddress": "address The MDT contract address."
        }
      },
      "contractTokenBalance()": {
        "details": "Get token balance of this contract.",
        "return": "the token balance of this contract."
      },
      "deliverRewards(address[],uint256[])": {
        "details": "Deliver data rewards to users. (contract owner only)",
        "params": {
          "_addresses": "address[] Addresses that MDT users binded to receive data rewards.",
          "_values": "uint256[] Amount of tokens earned."
        }
      },
      "emergencyERC20Drain(address,uint256)": {
        "details": "Transfer to owner any tokens send by mistake to this contract. (contract owner only)",
        "params": {
          "_token": "ERC20 The address of the token to transfer.",
          "amount": "uint256 The amount to be transferred."
        }
      },
      "getBoundAddresses()": {
        "details": "Get bound addresses.",
        "return": "bound addresses."
      },
      "getClaimableValue()": {
        "details": "Get amount of claimable tokens for the caller address.",
        "return": "amount of claimable tokens."
      },
      "getRewardRecord()": {
        "details": "Get reward record for the caller.",
        "return": "a tuple of reward record (claimableValue, totalTokensClaimed, lastClaimedTime, initialized, enabled)."
      },
      "getRewardRecordForAddress(address)": {
        "details": "Get reward record for address. (contract owner only)",
        "params": {
          "_address": "address Wallet address."
        },
        "return": "a tuple of reward record (claimableValue, totalTokensClaimed, lastClaimedTime, initialized, enabled)."
      },
      "getTotalTokensClaimed()": {
        "details": "Get total tokens claimed for the caller address.",
        "return": "amount of tokens claimed."
      },
      "isAddressBound()": {
        "details": "Check if the caller address is bound to the contract. (ever setup via deliverRewards or setRewardEnabled)",
        "return": "true if the caller address is bound."
      },
      "resume()": {
        "details": "Resume the data reward contract. (contract owner only)"
      },
      "setRewardEnabled(address,bool)": {
        "details": "Set data reward to enabled or disabled for a wallet address. (contract owner only)",
        "params": {
          "_address": "address Wallet address.",
          "_isEnabled": "true to set reward to be enabled."
        }
      },
      "setRewardsEnabled(address[],bool)": {
        "details": "Set data rewards to enabled or disabled for a list of wallet addresses. (contract owner only)",
        "params": {
          "_addresses": "address[] List of wallet addresses.",
          "_isEnabled": "true to set rewards to be enabled."
        }
      },
      "suspend()": {
        "details": "Suspend the data reward contract. (contract owner only)"
      },
      "tokenBalanceOf(address)": {
        "details": "Get token balance of a wallet address.",
        "params": {
          "_address": "address Address to be queried."
        },
        "return": "the token balance of a wallet address."
      },
      "transferOwnership(address)": {
        "details": "Allows the current owner to transfer control of the contract to a newOwner.",
        "params": {
          "newOwner": "The address to transfer ownership to."
        }
      },
      "transferReward(address,address,uint256)": {
        "details": "Transfer tokens between wallets, used when user binds the account to a different wallet address. (contract owner only)",
        "params": {
          "_amount": "amount of tokens to be transfered",
          "_fromAddress": "address The wallet address to transfer tokens from",
          "_toAddress": "address The wwallet address to transfer tokens to"
        }
      },
      "withdrawTokens(address,uint256)": {
        "details": "Withdraw tokens from the contract. (contract owner only)",
        "params": {
          "_amount": "uint256 Amount of tokens.",
          "_tokenReceiver": "address Wallet for receiving tokens."
        }
      }
    },
    "title": "The MDTDataReward contract"
  },
  "userdoc": {
    "methods": {}
  }
}