{
  "contractName": "MDTokenLockup",
  "abi": [
    {
      "constant": true,
      "inputs": [
        {
          "name": "",
          "type": "address"
        }
      ],
      "name": "privateSaleTokenLockup",
      "outputs": [
        {
          "name": "value",
          "type": "uint256"
        },
        {
          "name": "lockupPeriod",
          "type": "uint8"
        },
        {
          "name": "endTime",
          "type": "uint256"
        },
        {
          "name": "withdrawn",
          "type": "bool"
        },
        {
          "name": "withdrawnTime",
          "type": "uint256"
        }
      ],
      "payable": false,
      "stateMutability": "view",
      "type": "function"
    },
    {
      "constant": true,
      "inputs": [],
      "name": "TWELVE_MONTH_BONUS",
      "outputs": [
        {
          "name": "",
          "type": "uint256"
        }
      ],
      "payable": false,
      "stateMutability": "view",
      "type": "function"
    },
    {
      "constant": true,
      "inputs": [],
      "name": "getPrivateSaleLockupParticipants",
      "outputs": [
        {
          "name": "",
          "type": "address[]"
        }
      ],
      "payable": false,
      "stateMutability": "view",
      "type": "function"
    },
    {
      "constant": true,
      "inputs": [
        {
          "name": "_lockupPeriod",
          "type": "uint8"
        }
      ],
      "name": "calculateLockupEndTime",
      "outputs": [
        {
          "name": "",
          "type": "uint256"
        }
      ],
      "payable": false,
      "stateMutability": "view",
      "type": "function"
    },
    {
      "constant": true,
      "inputs": [],
      "name": "tokensSentAccidentally",
      "outputs": [
        {
          "name": "",
          "type": "uint256"
        }
      ],
      "payable": false,
      "stateMutability": "view",
      "type": "function"
    },
    {
      "constant": true,
      "inputs": [],
      "name": "getEarlyLateBirdLockupParticipants",
      "outputs": [
        {
          "name": "",
          "type": "address[]"
        }
      ],
      "payable": false,
      "stateMutability": "view",
      "type": "function"
    },
    {
      "constant": true,
      "inputs": [],
      "name": "endTime",
      "outputs": [
        {
          "name": "",
          "type": "uint256"
        }
      ],
      "payable": false,
      "stateMutability": "view",
      "type": "function"
    },
    {
      "constant": true,
      "inputs": [
        {
          "name": "_value",
          "type": "uint256"
        },
        {
          "name": "_lockupPeriod",
          "type": "uint8"
        }
      ],
      "name": "calculateTokensWithBonus",
      "outputs": [
        {
          "name": "total",
          "type": "uint256"
        },
        {
          "name": "bonus",
          "type": "uint256"
        }
      ],
      "payable": false,
      "stateMutability": "pure",
      "type": "function"
    },
    {
      "constant": false,
      "inputs": [
        {
          "name": "isPrivateSale",
          "type": "bool"
        }
      ],
      "name": "withdrawTokens",
      "outputs": [
        {
          "name": "",
          "type": "uint256"
        }
      ],
      "payable": false,
      "stateMutability": "nonpayable",
      "type": "function"
    },
    {
      "constant": true,
      "inputs": [
        {
          "name": "isPrivateSale",
          "type": "bool"
        }
      ],
      "name": "getLockupRecord",
      "outputs": [
        {
          "name": "",
          "type": "uint256"
        },
        {
          "name": "",
          "type": "uint8"
        },
        {
          "name": "",
          "type": "uint256"
        },
        {
          "name": "",
          "type": "bool"
        },
        {
          "name": "",
          "type": "uint256"
        }
      ],
      "payable": false,
      "stateMutability": "view",
      "type": "function"
    },
    {
      "constant": true,
      "inputs": [],
      "name": "SIX_MONTH_BONUS",
      "outputs": [
        {
          "name": "",
          "type": "uint256"
        }
      ],
      "payable": false,
      "stateMutability": "view",
      "type": "function"
    },
    {
      "constant": false,
      "inputs": [
        {
          "name": "_addresses",
          "type": "address[]"
        },
        {
          "name": "_values",
          "type": "uint256[]"
        }
      ],
      "name": "setEarlyLateBirdParticipantsHistory",
      "outputs": [],
      "payable": false,
      "stateMutability": "nonpayable",
      "type": "function"
    },
    {
      "constant": true,
      "inputs": [
        {
          "name": "isPrivateSale",
          "type": "bool"
        }
      ],
      "name": "canWithdrawTokens",
      "outputs": [
        {
          "name": "",
          "type": "bool"
        }
      ],
      "payable": false,
      "stateMutability": "view",
      "type": "function"
    },
    {
      "constant": false,
      "inputs": [
        {
          "name": "_tokenOwner",
          "type": "address"
        },
        {
          "name": "_amount",
          "type": "uint256"
        }
      ],
      "name": "depositBonus",
      "outputs": [],
      "payable": false,
      "stateMutability": "nonpayable",
      "type": "function"
    },
    {
      "constant": false,
      "inputs": [
        {
          "name": "_address",
          "type": "address"
        }
      ],
      "name": "deletePrivateSaleParticipantsHistory",
      "outputs": [],
      "payable": false,
      "stateMutability": "nonpayable",
      "type": "function"
    },
    {
      "constant": true,
      "inputs": [
        {
          "name": "",
          "type": "address"
        }
      ],
      "name": "privateSaleParticipantsHistory",
      "outputs": [
        {
          "name": "",
          "type": "uint256"
        }
      ],
      "payable": false,
      "stateMutability": "view",
      "type": "function"
    },
    {
      "constant": true,
      "inputs": [],
      "name": "MIN_LOCKUP_AMOUNT",
      "outputs": [
        {
          "name": "",
          "type": "uint256"
        }
      ],
      "payable": false,
      "stateMutability": "view",
      "type": "function"
    },
    {
      "constant": true,
      "inputs": [],
      "name": "totalTokens",
      "outputs": [
        {
          "name": "",
          "type": "uint256"
        }
      ],
      "payable": false,
      "stateMutability": "view",
      "type": "function"
    },
    {
      "constant": false,
      "inputs": [
        {
          "name": "_addresses",
          "type": "address[]"
        },
        {
          "name": "_values",
          "type": "uint256[]"
        }
      ],
      "name": "setPrivateSaleParticipantsHistory",
      "outputs": [],
      "payable": false,
      "stateMutability": "nonpayable",
      "type": "function"
    },
    {
      "constant": true,
      "inputs": [],
      "name": "owner",
      "outputs": [
        {
          "name": "",
          "type": "address"
        }
      ],
      "payable": false,
      "stateMutability": "view",
      "type": "function"
    },
    {
      "constant": true,
      "inputs": [
        {
          "name": "",
          "type": "uint256"
        }
      ],
      "name": "earlyLateBirdLockupParticipants",
      "outputs": [
        {
          "name": "",
          "type": "address"
        }
      ],
      "payable": false,
      "stateMutability": "view",
      "type": "function"
    },
    {
      "constant": false,
      "inputs": [
        {
          "name": "_sender",
          "type": "address"
        },
        {
          "name": "_value",
          "type": "uint256"
        },
        {
          "name": "_data",
          "type": "bytes"
        }
      ],
      "name": "onTokenTransfer",
      "outputs": [
        {
          "name": "success",
          "type": "bool"
        }
      ],
      "payable": false,
      "stateMutability": "nonpayable",
      "type": "function"
    },
    {
      "constant": false,
      "inputs": [
        {
          "name": "_address",
          "type": "address"
        }
      ],
      "name": "deleteEarlyLateBirdParticipantsHistory",
      "outputs": [],
      "payable": false,
      "stateMutability": "nonpayable",
      "type": "function"
    },
    {
      "constant": false,
      "inputs": [
        {
          "name": "investor",
          "type": "address"
        },
        {
          "name": "isPrivateSale",
          "type": "bool"
        }
      ],
      "name": "refund",
      "outputs": [],
      "payable": false,
      "stateMutability": "nonpayable",
      "type": "function"
    },
    {
      "constant": true,
      "inputs": [
        {
          "name": "",
          "type": "address"
        }
      ],
      "name": "earlyLateBirdParticipantsHistory",
      "outputs": [
        {
          "name": "",
          "type": "uint256"
        }
      ],
      "payable": false,
      "stateMutability": "view",
      "type": "function"
    },
    {
      "constant": false,
      "inputs": [
        {
          "name": "_sender",
          "type": "address"
        },
        {
          "name": "_tokenOwner",
          "type": "address"
        },
        {
          "name": "_amount",
          "type": "uint256"
        },
        {
          "name": "_lockupPeriod",
          "type": "uint8"
        },
        {
          "name": "_lockPrivateSale",
          "type": "bool"
        }
      ],
      "name": "lockupTokensByOwner",
      "outputs": [],
      "payable": false,
      "stateMutability": "nonpayable",
      "type": "function"
    },
    {
      "constant": false,
      "inputs": [
        {
          "name": "_tokenReceiver",
          "type": "address"
        },
        {
          "name": "_amount",
          "type": "uint256"
        }
      ],
      "name": "withdrawBonus",
      "outputs": [],
      "payable": false,
      "stateMutability": "nonpayable",
      "type": "function"
    },
    {
      "constant": true,
      "inputs": [
        {
          "name": "",
          "type": "uint256"
        }
      ],
      "name": "privateSaleLockupParticipants",
      "outputs": [
        {
          "name": "",
          "type": "address"
        }
      ],
      "payable": false,
      "stateMutability": "view",
      "type": "function"
    },
    {
      "constant": false,
      "inputs": [
        {
          "name": "_token",
          "type": "address"
        },
        {
          "name": "amount",
          "type": "uint256"
        }
      ],
      "name": "emergencyERC20Drain",
      "outputs": [],
      "payable": false,
      "stateMutability": "nonpayable",
      "type": "function"
    },
    {
      "constant": true,
      "inputs": [],
      "name": "totalTokensLocked",
      "outputs": [
        {
          "name": "",
          "type": "uint256"
        }
      ],
      "payable": false,
      "stateMutability": "view",
      "type": "function"
    },
    {
      "constant": true,
      "inputs": [
        {
          "name": "",
          "type": "address"
        }
      ],
      "name": "earlyLateBirdTokenLockup",
      "outputs": [
        {
          "name": "value",
          "type": "uint256"
        },
        {
          "name": "lockupPeriod",
          "type": "uint8"
        },
        {
          "name": "endTime",
          "type": "uint256"
        },
        {
          "name": "withdrawn",
          "type": "bool"
        },
        {
          "name": "withdrawnTime",
          "type": "uint256"
        }
      ],
      "payable": false,
      "stateMutability": "view",
      "type": "function"
    },
    {
      "constant": true,
      "inputs": [],
      "name": "hasEnded",
      "outputs": [
        {
          "name": "",
          "type": "bool"
        }
      ],
      "payable": false,
      "stateMutability": "view",
      "type": "function"
    },
    {
      "constant": true,
      "inputs": [
        {
          "name": "_address",
          "type": "address"
        }
      ],
      "name": "tokenBalance",
      "outputs": [
        {
          "name": "",
          "type": "uint256"
        }
      ],
      "payable": false,
      "stateMutability": "view",
      "type": "function"
    },
    {
      "constant": true,
      "inputs": [],
      "name": "THREE_MONTH_BONUS",
      "outputs": [
        {
          "name": "",
          "type": "uint256"
        }
      ],
      "payable": false,
      "stateMutability": "view",
      "type": "function"
    },
    {
      "constant": false,
      "inputs": [
        {
          "name": "newOwner",
          "type": "address"
        }
      ],
      "name": "transferOwnership",
      "outputs": [],
      "payable": false,
      "stateMutability": "nonpayable",
      "type": "function"
    },
    {
      "constant": true,
      "inputs": [],
      "name": "token",
      "outputs": [
        {
          "name": "",
          "type": "address"
        }
      ],
      "payable": false,
      "stateMutability": "view",
      "type": "function"
    },
    {
      "constant": true,
      "inputs": [],
      "name": "totalBonusTokens",
      "outputs": [
        {
          "name": "",
          "type": "uint256"
        }
      ],
      "payable": false,
      "stateMutability": "view",
      "type": "function"
    },
    {
      "inputs": [
        {
          "name": "_tokenAddress",
          "type": "address"
        },
        {
          "name": "_endTime",
          "type": "uint256"
        }
      ],
      "payable": false,
      "stateMutability": "nonpayable",
      "type": "constructor"
    },
    {
      "anonymous": false,
      "inputs": [
        {
          "indexed": true,
          "name": "_owner",
          "type": "address"
        },
        {
          "indexed": false,
          "name": "_amount",
          "type": "uint256"
        },
        {
          "indexed": false,
          "name": "_lockupPeriod",
          "type": "uint8"
        },
        {
          "indexed": false,
          "name": "_isPrivateSale",
          "type": "bool"
        }
      ],
      "name": "TokensLocked",
      "type": "event"
    },
    {
      "anonymous": false,
      "inputs": [
        {
          "indexed": true,
          "name": "_to",
          "type": "address"
        },
        {
          "indexed": false,
          "name": "_amount",
          "type": "uint256"
        },
        {
          "indexed": false,
          "name": "_isPrivateSale",
          "type": "bool"
        }
      ],
      "name": "TokensWithdrawn",
      "type": "event"
    },
    {
      "anonymous": false,
      "inputs": [
        {
          "indexed": true,
          "name": "_to",
          "type": "address"
        },
        {
          "indexed": false,
          "name": "_amount",
          "type": "uint256"
        },
        {
          "indexed": false,
          "name": "_isPrivateSale",
          "type": "bool"
        }
      ],
      "name": "TokensRefunded",
      "type": "event"
    },
    {
      "anonymous": false,
      "inputs": [
        {
          "indexed": true,
          "name": "_owner",
          "type": "address"
        },
        {
          "indexed": false,
          "name": "_amount",
          "type": "uint256"
        }
      ],
      "name": "BonusDeposited",
      "type": "event"
    },
    {
      "anonymous": false,
      "inputs": [
        {
          "indexed": true,
          "name": "_to",
          "type": "address"
        },
        {
          "indexed": false,
          "name": "_amount",
          "type": "uint256"
        }
      ],
      "name": "BonusWithdrawn",
      "type": "event"
    },
    {
      "anonymous": false,
      "inputs": [
        {
          "indexed": true,
          "name": "previousOwner",
          "type": "address"
        },
        {
          "indexed": true,
          "name": "newOwner",
          "type": "address"
        }
      ],
      "name": "OwnershipTransferred",
      "type": "event"
    }
  ],
  "bytecode": "0x6060604052341561000f57600080fd5b604051604080611da0833981016040528080519190602001805160008054600160a060020a03191633600160a060020a039081169190911790915590925083161515905061005c57600080fd5b42811161006857600080fd5b60048054600160a060020a031916600160a060020a039390931692909217909155600155611d058061009b6000396000f3006060604052600436106101b35763ffffffff60e060020a60003504166304199f0681146101b85780631131d8531461021b5780631f8ff6be14610240578063207e6b5a146102a657806322f30357146102bf578063303f3793146102d25780633197cbb6146102e5578063325deeb4146102f8578063354b2b461461032c5780633a44ee0114610344578063443caa2c146103915780634e3c904d146103a45780635ea6d1531461043557806363ac0f99146104615780636a0495e3146104835780636cd70012146104a25780636d0f30a9146104c15780637e1c0c09146104d4578063865125aa146104e75780638da5cb5b146105765780639724579f146105a5578063a4c0ed36146105bb578063b0cf5fc914610620578063b4bab0481461063f578063bc27919c14610663578063c2fe48c514610682578063d2880360146106b5578063d51447e7146106d7578063db0e16f1146106ed578063dc5bf9611461070f578063ea0122a514610722578063ecb70fb714610741578063eedc966a14610754578063f09ea69914610773578063f2fde38b14610786578063fc0c546a146107a5578063fc5d9244146107b8575b600080fd5b34156101c357600080fd5b6101d7600160a060020a03600435166107cb565b604051808681526020018560028111156101ed57fe5b60ff168152602001848152602001831515151581526020018281526020019550505050505060405180910390f35b341561022657600080fd5b61022e6107ff565b60405190815260200160405180910390f35b341561024b57600080fd5b610253610804565b60405160208082528190810183818151815260200191508051906020019060200280838360005b8381101561029257808201518382015260200161027a565b505050509050019250505060405180910390f35b34156102b157600080fd5b61022e60ff6004351661086d565b34156102ca57600080fd5b61022e6108f5565b34156102dd57600080fd5b61025361091c565b34156102f057600080fd5b61022e610982565b341561030357600080fd5b61031460043560ff60243516610988565b60405191825260208201526040908101905180910390f35b341561033757600080fd5b61022e6004351515610a18565b341561034f57600080fd5b61035c6004351515610b73565b60405194855260ff909316602085015260408085019290925215156060840152608083019190915260a0909101905180910390f35b341561039c57600080fd5b61022e610bc4565b34156103af57600080fd5b610433600460248135818101908301358060208181020160405190810160405280939291908181526020018383602002808284378201915050505050509190803590602001908201803590602001908080602002602001604051908101604052809392919081815260200183836020028082843750949650610bc995505050505050565b005b341561044057600080fd5b61044d6004351515610ca6565b604051901515815260200160405180910390f35b341561046c57600080fd5b610433600160a060020a0360043516602435610ce5565b341561048e57600080fd5b610433600160a060020a0360043516610e8f565b34156104ad57600080fd5b61022e600160a060020a0360043516610ed9565b34156104cc57600080fd5b61022e610eeb565b34156104df57600080fd5b61022e610ef8565b34156104f257600080fd5b610433600460248135818101908301358060208181020160405190810160405280939291908181526020018383602002808284378201915050505050509190803590602001908201803590602001908080602002602001604051908101604052809392919081815260200183836020028082843750949650610f7295505050505050565b341561058157600080fd5b61058961104a565b604051600160a060020a03909116815260200160405180910390f35b34156105b057600080fd5b610589600435611059565b34156105c657600080fd5b61044d60048035600160a060020a03169060248035919060649060443590810190830135806020601f8201819004810201604051908101604052818152929190602084018383808284375094965061108195505050505050565b341561062b57600080fd5b610433600160a060020a03600435166110fd565b341561064a57600080fd5b610433600160a060020a03600435166024351515611147565b341561066e57600080fd5b61022e600160a060020a03600435166113fd565b341561068d57600080fd5b610433600160a060020a036004358116906024351660443560ff60643516608435151561140f565b34156106c057600080fd5b610433600160a060020a036004351660243561157e565b34156106e257600080fd5b6105896004356116e4565b34156106f857600080fd5b610433600160a060020a03600435166024356116f2565b341561071a57600080fd5b61022e611792565b341561072d57600080fd5b6101d7600160a060020a0360043516611798565b341561074c57600080fd5b61044d6117cc565b341561075f57600080fd5b61022e600160a060020a03600435166117d4565b341561077e57600080fd5b61022e611851565b341561079157600080fd5b610433600160a060020a0360043516611856565b34156107b057600080fd5b6105896118e5565b34156107c357600080fd5b61022e6118f4565b60096020526000908152604090208054600182015460028301546003840154600490940154929360ff928316939192169085565b604281565b61080c611c8a565b600a80548060200260200160405190810160405280929190818152602001828054801561086257602002820191906000526020600020905b8154600160a060020a03168152600190910190602001808311610844575b505050505090505b90565b6000428183600281111561087d57fe5b141561089d57610896816276a70063ffffffff6118fa16565b90506108ef565b60018360028111156108ab57fe5b14156108c4576108968162ed4e0063ffffffff6118fa16565b60028360028111156108d257fe5b14156108ef576108ec816301e1338063ffffffff6118fa16565b90505b92915050565b600061091760035461090b60025461090b610ef8565b9063ffffffff61190916565b905090565b610924611c8a565b600880548060200260200160405190810160405280929190818152602001828054801561086257602002820191906000526020600020908154600160a060020a03168152600190910190602001808311610844575050505050905090565b60015481565b600080808084600281111561099957fe5b14156109a75750600a6109db565b60018460028111156109b557fe5b14156109c35750601e6109db565b60028460028111156109d157fe5b14156109db575060425b6109fc60646109f0878463ffffffff61191b16565b9063ffffffff61193f16565b9150610a0e858363ffffffff6118fa16565b9250509250929050565b600080600080610a2785610ca6565b1515610a3257600080fd5b610a3c3386611956565b80546001820154919450610a529160ff16610988565b8454600254929450909250610a6d919063ffffffff61190916565b600255600354610a83908263ffffffff61190916565b60039081558301805460ff191660011790554260048085019190915554600160a060020a031663a9059cbb338460006040516020015260405160e060020a63ffffffff8516028152600160a060020a0390921660048301526024820152604401602060405180830381600087803b1515610afc57600080fd5b6102c65a03f11515610b0d57600080fd5b505050604051805115156001149050610b2557600080fd5b33600160a060020a03167fa995a272df1bb18670c48272b0035c51cb0074b02b60ded72745a68e1cacfb308387604051918252151560208201526040908101905180910390a2509392505050565b600080600080600080610b863388611956565b805460018201549192509060ff166002811115610b9f57fe5b60028301546003840154600490940154929a919950975060ff90921695509350915050565b601e81565b6000805433600160a060020a03908116911614610be557600080fd5b8151835114610bf357600080fd5b5060005b8251811015610ca1576000838281518110610c0e57fe5b90602001906020020151600160a060020a031614158015610c4457506000828281518110610c3857fe5b90602001906020020151115b1515610c4f57600080fd5b818181518110610c5b57fe5b9060200190602002015160056000858481518110610c7557fe5b90602001906020020151600160a060020a03168152602081019190915260400160002055600101610bf7565b505050565b600080610cb33384611956565b905060008160000154118015610ccd575080600201544210155b8015610cde5750600381015460ff16155b9392505050565b6000805433600160a060020a03908116911614610d0157600080fd5b600454600160a060020a031663dd62ed3e843060006040516020015260405160e060020a63ffffffff8516028152600160a060020a03928316600482015291166024820152604401602060405180830381600087803b1515610d6257600080fd5b6102c65a03f11515610d7357600080fd5b5050506040518051915050600081118015610d8e5750600082115b8015610d9a5750808211155b1515610da557600080fd5b600454600160a060020a03166323b872dd84308560006040516020015260405160e060020a63ffffffff8616028152600160a060020a0393841660048201529190921660248201526044810191909152606401602060405180830381600087803b1515610e1157600080fd5b6102c65a03f11515610e2257600080fd5b505050604051805190501515610e3757600080fd5b600354610e4a908363ffffffff6118fa16565b600355600160a060020a0383167f9f50b49d5968e7d7c5bf7e73743d28ad1bc84f633046e14d2889544d24463b848360405190815260200160405180910390a2505050565b60005433600160a060020a03908116911614610eaa57600080fd5b600160a060020a0381161515610ebf57600080fd5b600160a060020a0316600090815260066020526040812055565b60066020526000908152604090205481565b6821e19e0c9bab24000081565b600454600090600160a060020a03166370a0823130836040516020015260405160e060020a63ffffffff8416028152600160a060020a039091166004820152602401602060405180830381600087803b1515610f5357600080fd5b6102c65a03f11515610f6457600080fd5b505050604051805191505090565b6000805433600160a060020a03908116911614610f8e57600080fd5b8151835114610f9c57600080fd5b5060005b8251811015610ca1576000838281518110610fb757fe5b90602001906020020151600160a060020a031614158015610fed57506000828281518110610fe157fe5b90602001906020020151115b1515610ff857600080fd5b81818151811061100457fe5b906020019060200201516006600085848151811061101e57fe5b90602001906020020151600160a060020a03168152602081019190915260400160002055600101610fa0565b600054600160a060020a031681565b600880548290811061106757fe5b600091825260209091200154600160a060020a0316905081565b600061108b6117cc565b1561109557600080fd5b60045433600160a060020a039081169116146110b357506000610cde565b60008251116110c157600080fd5b6110f38484846000815181106110d357fe5b016020015160f860020a900460f860020a0260f860020a9004600061199a565b5060019392505050565b60005433600160a060020a0390811691161461111857600080fd5b600160a060020a038116151561112d57600080fd5b600160a060020a0316600090815260056020526040812055565b6000805481908190819033600160a060020a0390811691161461116957600080fd5b600160a060020a0386161580159061118f5750600454600160a060020a03878116911614155b80156111ad575030600160a060020a031686600160a060020a031614155b15156111b857600080fd5b6111c28686611956565b805490945092506000831180156111de5750600384015460ff16155b80156111ed5750836002015442105b15156111f857600080fd5b60025461120b908463ffffffff61190916565b60025561121785611b98565b9150600090505b815481101561129b5785600160a060020a0316828281548110151561123f57fe5b600091825260209091200154600160a060020a0316141561129357818181548110151561126857fe5b6000918252602090912001805473ffffffffffffffffffffffffffffffffffffffff1916905561129b565b60010161121e565b84156112e657600160a060020a038616600090815260096020526040812081815560018101805460ff1990811690915560028201839055600382018054909116905560040155611327565b600160a060020a038616600090815260076020526040812081815560018101805460ff19908116909155600282018390556003820180549091169055600401555b600454600160a060020a031663a9059cbb878560006040516020015260405160e060020a63ffffffff8516028152600160a060020a0390921660048301526024820152604401602060405180830381600087803b151561138657600080fd5b6102c65a03f1151561139757600080fd5b5050506040518051151560011490506113af57600080fd5b85600160a060020a03167ffaa79c796008810af924dd559529050d41ac7d20e37ad2452431d029863209678487604051918252151560208201526040908101905180910390a2505050505050565b60056020526000908152604090205481565b6000805433600160a060020a0390811691161461142b57600080fd5b600454600160a060020a031663dd62ed3e863060006040516020015260405160e060020a63ffffffff8516028152600160a060020a03928316600482015291166024820152604401602060405180830381600087803b151561148c57600080fd5b6102c65a03f1151561149d57600080fd5b50505060405180519150506000811180156114c157506821e19e0c9bab2400008410155b80156114cd5750808411155b15156114d857600080fd5b6114e48685858561199a565b600454600160a060020a03166323b872dd86308760006040516020015260405160e060020a63ffffffff8616028152600160a060020a0393841660048201529190921660248201526044810191909152606401602060405180830381600087803b151561155057600080fd5b6102c65a03f1151561156157600080fd5b50505060405180519050151561157657600080fd5b505050505050565b60005433600160a060020a0390811691161461159957600080fd5b600160a060020a038216158015906115bf5750600454600160a060020a03838116911614155b80156115dd575030600160a060020a031682600160a060020a031614155b15156115e857600080fd5b6000811180156115fa57506003548111155b151561160557600080fd5b600354611618908263ffffffff61190916565b600355600454600160a060020a031663a9059cbb838360006040516020015260405160e060020a63ffffffff8516028152600160a060020a0390921660048301526024820152604401602060405180830381600087803b151561167a57600080fd5b6102c65a03f1151561168b57600080fd5b5050506040518051151560011490506116a357600080fd5b81600160a060020a03167fa48e1ff74bd0f1b584708d4ea741299b0e243b1dc795f94756cb5fe9147cf80e8260405190815260200160405180910390a25050565b600a80548290811061106757fe5b60005433600160a060020a0390811691161461170d57600080fd5b60008054600160a060020a038085169263a9059cbb929091169084906040516020015260405160e060020a63ffffffff8516028152600160a060020a0390921660048301526024820152604401602060405180830381600087803b151561177357600080fd5b6102c65a03f1151561178457600080fd5b505050604051805150505050565b60025481565b60076020526000908152604090208054600182015460028301546003840154600490940154929360ff928316939192169085565b600154421190565b600454600090600160a060020a03166370a0823183836040516020015260405160e060020a63ffffffff8416028152600160a060020a039091166004820152602401602060405180830381600087803b151561182f57600080fd5b6102c65a03f1151561184057600080fd5b50505060405180519150505b919050565b600a81565b60005433600160a060020a0390811691161461187157600080fd5b600160a060020a038116151561188657600080fd5b6000805473ffffffffffffffffffffffffffffffffffffffff1916600160a060020a03838116918217928390559091167f8be0079c531659141344cd1fd0a4f28419497f9722a3daafe3b4186f6b6457e060405160405180910390a350565b600454600160a060020a031681565b60035481565b600082820183811015610cde57fe5b60008282111561191557fe5b50900390565b6000828202831580611937575082848281151561193457fe5b04145b1515610cde57fe5b600080828481151561194d57fe5b04949350505050565b6000811561197c5750600160a060020a03821660009081526009602052604090206108ef565b50600160a060020a03821660009081526007602052604090206108ef565b600160a060020a03841615156119af57600080fd5b600260ff831611156119c057600080fd5b6821e19e0c9bab2400008310156119d657600080fd5b8015611ab957600160a060020a038416600090815260096020526040902054156119ff57600080fd5b600160a060020a038416600090815260066020526040812054118015611a3d5750600160a060020a0384166000908152600660205260409020548311155b1515611a4857600080fd5b600160a060020a0384166000908152600960205260409020611a709085908590859085611bb0565b600a805460018101611a828382611c9c565b506000918252602090912001805473ffffffffffffffffffffffffffffffffffffffff1916600160a060020a038616179055611b92565b600160a060020a03841660009081526007602052604090205415611adc57600080fd5b600160a060020a038416600090815260056020526040812054118015611b1a5750600160a060020a0384166000908152600560205260409020548311155b1515611b2557600080fd5b600160a060020a0384166000908152600760205260409020611b4d9085908590859085611bb0565b6008805460018101611b5f8382611c9c565b506000918252602090912001805473ffffffffffffffffffffffffffffffffffffffff1916600160a060020a0386161790555b50505050565b60008115611ba85750600a61184c565b50600861184c565b8154611bc2908563ffffffff6118fa16565b825560ff83166002811115611bd357fe5b60018084018054909160ff1990911690836002811115611bef57fe5b02179055506001820154611c059060ff1661086d565b60028084019190915560038301805460ff1916905554611c2b908563ffffffff6118fa16565b600255600160a060020a0385167f6f57a3947460581dc6bfc9660a7f3f04dc363b0f616d93159a1d615729358ab685858460405192835260ff909116602083015215156040808301919091526060909101905180910390a25050505050565b60206040519081016040526000815290565b815481835581811511610ca157600083815260209020610ca191810190830161086a91905b80821115611cd55760008155600101611cc1565b50905600a165627a7a723058201b1ed3411798d04b6664bc19c8d011d90c3cd318ba9626e25d565fc996199ba20029",
  "source": "pragma solidity ^0.4.17;\n\nimport './math/SafeMath.sol';\nimport './token/ERC677Receiver.sol';\nimport './token/ERC20.sol';\nimport './ownership/Ownable.sol';\n\n/**\n * @title The MDTokenLockup contract\n * @dev Lock up MDT and receive bonus\n * @author MDT Team\n */\ncontract MDTokenLockup is ERC677Receiver, Ownable {\n    using SafeMath for uint256;\n\n    enum LockupPeriod { THREE_MONTH, SIX_MONTH, TWELVE_MONTH }\n\n    uint256 public constant MIN_LOCKUP_AMOUNT = 625 * 10**18; // minimum lockup aount - 625 MDT\n    uint256 public constant THREE_MONTH_BONUS = 10; // 10% bonus for 3 months lockup\n    uint256 public constant SIX_MONTH_BONUS = 30; // 30% bonus for 6 months lockup\n    uint256 public constant TWELVE_MONTH_BONUS = 66; // 66% bonus for 12 months lockup\n\n    uint256 public endTime;\n    uint256 public totalTokensLocked;\n    uint256 public totalBonusTokens;\n    ERC20 public token;\n\n    // Token Lockup for the investor\n    struct Lockup {\n        uint256 value;\n        LockupPeriod lockupPeriod;\n        uint256 endTime;\n        bool withdrawn;\n        uint256 withdrawnTime;\n    }\n\n    // Investor address to tokens purchased mapping during early and late bird sale\n    mapping (address => uint256) public earlyLateBirdParticipantsHistory;\n\n    // Investor address to tokens purchased mapping during private sale\n    mapping (address => uint256) public privateSaleParticipantsHistory;\n\n    // Early and late bird token lockup mapping\n    mapping (address => Lockup) public earlyLateBirdTokenLockup;\n\n    // Early and late bird token lockup participants array\n    address[] public earlyLateBirdLockupParticipants;\n\n    // Private sale token lockup mapping\n    mapping (address => Lockup) public privateSaleTokenLockup;\n\n    // Private sale token lockup participants array\n    address[] public privateSaleLockupParticipants;\n\n    // Events\n    event TokensLocked(address indexed _owner, uint256 _amount, uint8 _lockupPeriod, bool _isPrivateSale);\n    event TokensWithdrawn(address indexed _to, uint256 _amount, bool _isPrivateSale);\n    event TokensRefunded(address indexed _to, uint256 _amount, bool _isPrivateSale);\n    event BonusDeposited(address indexed _owner, uint256 _amount);\n    event BonusWithdrawn(address indexed _to, uint256 _amount);\n\n    modifier onlyDuringLockEvent {\n        require(!hasEnded());\n        _;\n    }\n\n    /**\n    * @dev MDTokenLockup contract constructor.\n    * @param _tokenAddress address The MDT contract address.\n    * @param _endTime uint256 The end time of the lockup event.\n    */\n    function MDTokenLockup(address _tokenAddress, uint256 _endTime) public {\n        require(_tokenAddress != address(0));\n        require(_endTime > now);\n\n        token = ERC20(_tokenAddress);\n        endTime = _endTime;\n    }\n\n    /**\n     * @dev Set early/late bird participants history. (contract owner only)\n     * @param _addresses address[] Addresses that investors used to participate in early/late bird sale.\n     * @param _values uint256[] Amount of tokens purchased in early/late bird sale.\n     */\n    function setEarlyLateBirdParticipantsHistory(address[] _addresses, uint256[] _values) public onlyOwner {\n        require(_addresses.length == _values.length);\n\n        for (uint i = 0; i < _addresses.length; i++) {\n            require(_addresses[i] != address(0) && _values[i] > 0);\n            earlyLateBirdParticipantsHistory[_addresses[i]] = _values[i];\n        }\n    }\n\n    /**\n     * @dev Set private sale participants history. (contract owner only)\n     * @param _addresses address[] Addresses that investors used to participate in private sale.\n     * @param _values uint256[] Amount of tokens purchased in early/late private sale.\n     */\n    function setPrivateSaleParticipantsHistory(address[] _addresses, uint256[] _values) public onlyOwner {\n        require(_addresses.length == _values.length);\n\n        for (uint i = 0; i < _addresses.length; i++) {\n            require(_addresses[i] != address(0) && _values[i] > 0);\n            privateSaleParticipantsHistory[_addresses[i]] = _values[i];\n        }\n    }\n\n    /**\n     * @dev Delete early/late bird participants history. (contract owner only)\n     * @param _address address Address to be deleted.\n     */\n    function deleteEarlyLateBirdParticipantsHistory(address _address) public onlyOwner {\n        require(_address != address(0));\n        delete earlyLateBirdParticipantsHistory[_address];\n    }\n\n    /**\n     * @dev Delete private sale participants history. (contract owner only)\n     * @param _address address Address to be deleted.\n     */\n    function deletePrivateSaleParticipantsHistory(address _address) public onlyOwner {\n        require(_address != address(0));\n        delete privateSaleParticipantsHistory[_address];\n    }\n\n    /**\n     * @dev Get token balance for a wallet address.\n     * @param _address address Address to be queried.\n     * @return the token balance of a wallet address.\n     */\n    function tokenBalance(address _address) public view returns (uint256) {\n        return token.balanceOf(_address);\n    }\n\n    /**\n     * @dev Get token balance of this contract.\n     * @return the token balance of this contract.\n     */\n    function totalTokens() public view returns (uint256) {\n        return token.balanceOf(this);\n    }\n\n    /**\n     * @dev Get amount of tokens that sent accidentally to this contract.\n     * @return amount of tokens that sent accidentally.\n     */\n    function tokensSentAccidentally() public view returns (uint256) {\n        return totalTokens().sub(totalTokensLocked).sub(totalBonusTokens);\n    }\n\n    /**\n     * @dev Check if the lockup event ends.\n     * @return true if the lockup event ended.\n     */\n    function hasEnded() public view returns (bool) {\n        return now > endTime;\n    }\n\n    /**\n     * @dev Get addresses of early/late bird lockup participants.\n     * @return addresses of early/late bird lockup participants.\n     */\n    function getEarlyLateBirdLockupParticipants() public view returns (address[]) {\n        return earlyLateBirdLockupParticipants;\n    }\n\n    /**\n     * @dev Get addresses of private sale lockup participants.\n     * @return addresses of private sale lockup participants.\n     */\n    function getPrivateSaleLockupParticipants() public view returns (address[]) {\n        return privateSaleLockupParticipants;\n    }\n\n    function getTokenLockup(address sender, bool isPrivateSale) private view returns (Lockup storage) {\n        if (isPrivateSale) {\n            return privateSaleTokenLockup[sender];\n        } else {\n            return earlyLateBirdTokenLockup[sender];\n        }\n    }\n\n    function getLockupParticipants(bool isPrivateSale) private view returns (address[] storage) {\n        if (isPrivateSale) {\n            return privateSaleLockupParticipants;\n        } else {\n            return earlyLateBirdLockupParticipants;\n        }\n    }\n\n    /**\n     * @dev Get token lockup record.\n     * @param isPrivateSale bool If it is asked the private sale record.\n     * @return a tuple of token lockup record (value, lockupPeriod, endTime, withdrawn, withdrawnTime).\n     */\n    function getLockupRecord(bool isPrivateSale) public view returns (uint256, uint8, uint256, bool, uint256) {\n        Lockup storage lockup = getTokenLockup(msg.sender, isPrivateSale);\n        return (lockup.value, uint8(lockup.lockupPeriod), lockup.endTime, lockup.withdrawn, lockup.withdrawnTime);\n    }\n\n    /**\n     * @dev Callback function when someone send tokens to this contract via the ERC677 contract's transferAndCall function.\n     * @param _sender address The caller address.\n     * @param _value uint The amount to be transferred.\n     * @param _data bytes The extra data to be passed to the receiving contract.\n     * @return true if it is called by the assigned token contract.\n     */\n    function onTokenTransfer(address _sender, uint _value, bytes _data) public onlyDuringLockEvent returns (bool success) {\n        // only accept callback from assigned token contract\n        if (msg.sender != address(token)) {\n            return false;\n        }\n\n        require(_data.length > 0);\n        lockupTokens(_sender, _value, uint8(_data[0]), false);\n        return true;\n    }\n\n    function lockupTokens(address _sender, uint256 _amount, uint8 _lockupPeriod, bool lockPrivateSale) private {\n        require(_sender != address(0));\n        require(_lockupPeriod <= uint8(LockupPeriod.TWELVE_MONTH));\n        require(_amount >= MIN_LOCKUP_AMOUNT);\n        if (lockPrivateSale) {\n            require(privateSaleTokenLockup[_sender].value == 0);\n            require(privateSaleParticipantsHistory[_sender] > 0 && _amount <= privateSaleParticipantsHistory[_sender]);\n            _lockupTokens(_sender, _amount, _lockupPeriod, privateSaleTokenLockup[_sender], lockPrivateSale);\n            privateSaleLockupParticipants.push(_sender);\n        } else {\n            require(earlyLateBirdTokenLockup[_sender].value == 0);\n            require(earlyLateBirdParticipantsHistory[_sender] > 0 && _amount <= earlyLateBirdParticipantsHistory[_sender]);\n            _lockupTokens(_sender, _amount, _lockupPeriod, earlyLateBirdTokenLockup[_sender], lockPrivateSale);\n            earlyLateBirdLockupParticipants.push(_sender);\n        }\n    }\n\n    function _lockupTokens(address _sender, uint256 _amount, uint8 _lockupPeriod, Lockup storage lockup, bool lockPrivateSale) private {\n        lockup.value = lockup.value.add(_amount);\n        lockup.lockupPeriod = LockupPeriod(_lockupPeriod);\n        lockup.endTime = calculateLockupEndTime(lockup.lockupPeriod);\n        lockup.withdrawn = false;\n        totalTokensLocked = totalTokensLocked.add(_amount);\n\n        TokensLocked(_sender, _amount, _lockupPeriod, lockPrivateSale);\n    }\n\n    /**\n     * @dev Lockup tokens. (contract owner only)\n     * @dev Caller must call approve method of token contract before calling this function.\n     * @param _sender address The investor address.\n     * @param _tokenOwner address The token owner. (must approve the lockup contract to transfer his tokens)\n     * @param _amount uint256 Amount of tokens to be locked.\n     * @param _lockupPeriod uint8 The lockup period.\n     * @param _lockPrivateSale bool If it is a private sale lockup.\n     */\n    function lockupTokensByOwner(address _sender, address _tokenOwner, uint256 _amount, uint8 _lockupPeriod, bool _lockPrivateSale) public onlyOwner {\n        uint256 allowance = token.allowance(_tokenOwner, this);\n        require(allowance > 0 && _amount >= MIN_LOCKUP_AMOUNT && _amount <= allowance);\n        lockupTokens(_sender, _amount, _lockupPeriod, _lockPrivateSale);\n        // transfer tokens to the contract only if tokens can be locked\n        require(token.transferFrom(_tokenOwner, this, _amount));\n    }\n\n    /**\n     * @dev Deposit bonus tokens to the contract. (contract owner only)\n     * @param _tokenOwner address The token owner.\n     * @param _amount uint256 Amount of bonus tokens.\n     */\n    function depositBonus(address _tokenOwner, uint256 _amount) public onlyOwner {\n        uint256 allowance = token.allowance(_tokenOwner, this);\n        require(allowance > 0 && _amount > 0 && _amount <= allowance);\n        require(token.transferFrom(_tokenOwner, this, _amount));\n        totalBonusTokens = totalBonusTokens.add(_amount);\n        BonusDeposited(_tokenOwner, _amount);\n    }\n\n    /**\n     * @dev Withdraw bonus tokens from the contract. (contract owner only)\n     * @param _tokenReceiver address Wallet for receiving tokens.\n     * @param _amount uint256 Amount of bonus tokens.\n     */\n    function withdrawBonus(address _tokenReceiver, uint256 _amount) public onlyOwner {\n        require(_tokenReceiver != address(0) && _tokenReceiver != address(token) && _tokenReceiver != address(this));\n        require(_amount > 0 && _amount <= totalBonusTokens);\n        totalBonusTokens = totalBonusTokens.sub(_amount);\n        require(token.transfer(_tokenReceiver, _amount) == true);\n        BonusWithdrawn(_tokenReceiver, _amount);\n    }\n\n    /**\n     * @dev Calculate token with bonus after lockup period.\n     * @param _value uint256 Amount of tokens for lockup.\n     * @param _lockupPeriod LockupPeriod The lockup period, which must be 0 (3 months), 1 (6 months) and 2 (12 months).\n     * @return a tuple of tokens plus bonus and bonus.\n     */\n    function calculateTokensWithBonus(uint256 _value, LockupPeriod _lockupPeriod) public pure returns (uint256 total, uint256 bonus) {\n        uint256 bonusPercent;\n        if (_lockupPeriod == LockupPeriod.THREE_MONTH) {\n            bonusPercent = THREE_MONTH_BONUS;\n        } else if (_lockupPeriod == LockupPeriod.SIX_MONTH) {\n            bonusPercent = SIX_MONTH_BONUS;\n        } else if (_lockupPeriod == LockupPeriod.TWELVE_MONTH) {\n            bonusPercent = TWELVE_MONTH_BONUS;\n        }\n        bonus = _value.mul(bonusPercent).div(100);\n        total = _value.add(bonus);\n    }\n\n    /**\n     * @dev Calculate lockup end date. End time is calculated based on the lockup period.\n     * @dev Lockup end time = now + lockup period.\n     * @param _lockupPeriod LockupPeriod The lockup period, which must be 0 (3 months), 1 (6 months) and 2 (12 months).\n     * @return lockup end time.\n     */\n    function calculateLockupEndTime(LockupPeriod _lockupPeriod) public view returns (uint256) {\n        uint256 _endTime = now;\n        if (_lockupPeriod == LockupPeriod.THREE_MONTH) {\n            _endTime = _endTime.add(90 days);\n        } else if (_lockupPeriod == LockupPeriod.SIX_MONTH) {\n            _endTime = _endTime.add(180 days);\n        } else if (_lockupPeriod == LockupPeriod.TWELVE_MONTH) {\n            _endTime = _endTime.add(1 years);\n        }\n        return _endTime;\n    }\n\n    /**\n     * @dev Check if the sender can withdraw tokens.\n     * @param isPrivateSale bool If it is private sale lockup.\n     * @return true if the sender can withdraw tokens.\n     */\n    function canWithdrawTokens(bool isPrivateSale) public view returns (bool) {\n        Lockup storage lockup = getTokenLockup(msg.sender, isPrivateSale);\n        return lockup.value > 0 && now >= lockup.endTime && lockup.withdrawn == false;\n    }\n\n    /**\n     * @dev Withdraw locked tokens with bonus. (can only be called after lockup event)\n     * @param isPrivateSale bool If it is private sale lockup.\n     * @return amount of tokens and bonus.\n     */\n    function withdrawTokens(bool isPrivateSale) public returns (uint256) {\n        require(canWithdrawTokens(isPrivateSale));\n        Lockup storage lockup = getTokenLockup(msg.sender, isPrivateSale);\n        var (tokenWithBonus, bonus) = calculateTokensWithBonus(lockup.value, lockup.lockupPeriod);\n        totalTokensLocked = totalTokensLocked.sub(lockup.value);\n        totalBonusTokens = totalBonusTokens.sub(bonus);\n        lockup.withdrawn = true;\n        lockup.withdrawnTime = now;\n        require(token.transfer(msg.sender, tokenWithBonus) == true);\n        TokensWithdrawn(msg.sender, tokenWithBonus, isPrivateSale);\n        return tokenWithBonus;\n    }\n\n    /**\n     * @dev Refund locked tokens to investor. (contract owner only)\n     * @param investor address The address of the token to transfer.\n     * @param isPrivateSale bool If it is private sale lockup.\n     */\n    function refund(address investor, bool isPrivateSale) public onlyOwner {\n        require(investor != address(0) && investor != address(token) && investor != address(this));\n        Lockup storage lockup = getTokenLockup(investor, isPrivateSale);\n        uint256 lockedAmount = lockup.value;\n        require(lockedAmount > 0 && !lockup.withdrawn && now < lockup.endTime);\n        totalTokensLocked = totalTokensLocked.sub(lockedAmount);\n        // Delete address from the early and late bird lockup array\n        address[] storage lockupParticipants = getLockupParticipants(isPrivateSale);\n        for (uint i = 0; i < lockupParticipants.length; i++) {\n            if (lockupParticipants[i] == investor) {\n                delete lockupParticipants[i];\n                break;\n            }\n        }\n        if (isPrivateSale) {\n            delete privateSaleTokenLockup[investor];\n        } else {\n            delete earlyLateBirdTokenLockup[investor];\n        }\n        require(token.transfer(investor, lockedAmount) == true);\n        TokensRefunded(investor, lockedAmount, isPrivateSale);\n    }\n\n    /**\n     * @dev Transfer to owner any tokens send by mistake to this contract. (contract owner only)\n     * @param _token ERC20 The address of the token to transfer.\n     * @param amount uint256 The amount to be transfered.\n     */\n    function emergencyERC20Drain(ERC20 _token, uint256 amount) public onlyOwner {\n        _token.transfer(owner, amount);\n    }\n}",
  "sourcePath": "/Users/Gary/Desktop/SourceCode/mdt-contracts/contracts/MDTokenLockup.sol",
  "compiler": {
    "name": "solc",
    "version": "0.4.18+commit.9cf6e910.Emscripten.clang"
  },
  "schemaVersion": "1.0.1",
  "updatedAt": "2018-02-05T14:10:26.804Z"
}